:100000007CC000008CC000008AC00000BEC100009F
:10001000F0C1000084C0000082C0000080C0000069
:100020007EC000007CC000007AC0000078C00000E4
:1000300076C0000074C0000072C0000070C00000F4
:100040006EC000006CC000006AC0000068C0000004
:1000500066C0000064C0000062C0000060C0000014
:100060005EC000005CC000005AC0000058C0000024
:1000700056C0000054C0000052C0000050C0000034
:100080004EC000004CC000004AC0000048C0000044
:1000900046C0000044C0000042C0000040C0000054
:1000A0003EC000003CC000003AC0000038C0000064
:1000B00036C0000034C0000032C0000030C0000074
:1000C0002EC000002CC000002AC0000028C0000084
:1000D00026C0000024C0000022C0000020C0000094
:1000E0001EC0000009011701250137014901570110
:1000F0006E0178018F019C01A90111241FBECFEF71
:10010000D1E2DEBFCDBF00E00CBF22E0A0E0B2E054
:1001100001C01D92A230B207E1F7C8D1FBC270CF77
:10012000E9E6F0E08081806F80838DB38C608DBBC9
:1001300078940895FC0173836283558344833783E5
:10014000268321E030E031832083EACF0895CF93E6
:10015000DF93EC016EE18C819D8147D28FE39CE9B6
:100160000197F1F700C000009FEF23E234EF80E039
:100170009150204030408040D9F700C000006BE231
:1001800070E08E819F8169D16AE070E08E819F81ED
:100190006AD162E08A819B81BDD19FEF25EA3EE072
:1001A000915020403040E1F700C0000063E08A81B8
:1001B0009B81B0D18FEF95EA2EE081509040204096
:1001C000E1F700C0000064E08A819B81A3D13FEF8A
:1001D00085EA9EE0315080409040E1F700C0000089
:1001E00065E08A819B8196D1DF91CF910895CF936D
:1001F000DF932091000230910102F9013197EB3039
:10020000F10508F0BFC0EC018827EE58FF4F8F4F73
:1002100079C2888199812817390709F0B3C00196FE
:100220009983888362E08C819D81D0D1ABC0888125
:1002300099812817390709F0A5C001969983888309
:1002400062E08C819D81C2D19DC0888199812817EF
:10025000390709F097C001969983888362E08C8101
:100260009D81B4D165E08A819B8154D18BC0888106
:1002700099812817390709F085C0019699838883E9
:1002800062E08C819D81A2D163E08A819B8142D111
:1002900079C0888199812817390709F073C00196C0
:1002A0009983888362E08C819D8190D16BC0888125
:1002B00099812817390709F065C0019699838883C9
:1002C00062E08C819D8182D165E08A819B813CD1F5
:1002D00064E370E08E819F81C6D054C0888199818B
:1002E0002817390709F04EC00196998388834AC0C0
:1002F000888199812817390709F044C001969983AC
:10030000888362E08C819D8161D163E08A819B81D9
:1003100001D16AE070E08E819F81A5D033C08881D1
:1003200099812817390771F501969983888365E0CB
:100330008A819B81EFD026C088819981281739074F
:1003400009F501969983888362E08C819D813ED175
:1003500019C08881998128173907A1F401969983DA
:1003600088838A819B8103D163E08C819D812ED11A
:1003700060E070E08E819F8176D060E070E08E81D9
:100380009F8171D0DF91CF9108951F920F920FB688
:100390000F9211242F938F939F938DB3877F8DBBE3
:1003A0008DB38B7F8DBB80910002909101020196ED
:1003B00090930102809300022FEF89E698E121508B
:1003C00080409040E1F700C000008CB384608CBB9B
:1003D0008CB388608CBB8DB384608DBB8DB388601B
:1003E0008DBB9F918F912F910F900FBE0F901F90FB
:1003F00018951F920F920FB60F9211242F938F937F
:100400009F938DB3877F8DBB8DB38B7F8DBB809189
:1004100000029091010201969093010280930002E4
:100420002FEF89E698E1215080409040E1F700C02D
:1004300000008CB388608CBB8CB384608CBB8DB3A4
:1004400088608DBB8DB384608DBB9F918F912F9100
:100450000F900FBE0F901F901895FC016083718361
:10046000660F67BD0895FC0173836283660F771F73
:1004700070938900609388000895CF93DF93EC0117
:100480008FEF84B960E070E0CE01E7DF60E070E0FC
:10049000CE01E9DF83E884BD83E085BD91E89093D8
:1004A000800080938100DF91CF910895CF93DF93F7
:1004B000CDB7DEB767970FB6F894DEBF0FBECDBFDE
:1004C000CE01019619D0CE0102969DD0CE010C9698
:1004D000D4DF9E01245F3F4FAE014E5F5F4FBE01F0
:1004E0006F5F7F4FCE01409625DECE0140962FDE16
:1004F000CE0140967CDEFCCF8FEF8DB91EB883E82D
:100500008093900083E08093910010929900109264
:10051000980008958FEF860F863038F08CE291E0D6
:100520009093990080939800089585B1816085B972
:100530008BEA689F612D112480E0962F9C7F909319
:1005400099008093980008958FEF860F863070F49D
:1005500085B1867C85B98BEA689F612D112480E086
:10056000962F9C7F90939900809398000895109205
:100570009900109298000895FC018381218130E058
:10058000280F311D8481280F311D8581280F311DD1
:100590003195219531093187208736832783089546
:1005A000CF93DF93EC01888184D08B8182D08981C5
:1005B00080D08C817ED08D817CD08E817AD08F81CD
:1005C00078D08A8176D0DF91CF910895CF93DF9351
:1005D000EC018FE08B8381E08C836D83CE01CCDFD7
:1005E000CE01DEDFDF91CF910895CF93DF93EC0151
:1005F00086E08B831C826D83CE01BEDFCE01D0DF0F
:10060000DF91CF910895FC018EE7808311828FEEF8
:10061000828321E048E060E875E280E090E001C07C
:1006200008950F931F93CF93C42F422F8B019C01EA
:100630000C52114021093109053D104C2140310572
:1006400020F4C53010F0C93018F081E090E062D09D
:1006500028E12093C100442329F0E1ECF0E020815F
:1006600020682083DC01CB01880F991FAA1FBB1FC4
:10067000880F991FAA1FBB1F9C01AD01220F331FBA
:10068000441F551F220F331F441F551F60E074E2A3
:1006900084EF90E015D0215031093093C5002093AC
:1006A000C400C550CC0FC093C200CF911F910F91D1
:1006B00008959091C00095FFFCCF8093C6000895E7
:1006C000A1E21A2EAA1BBB1BFD010DC0AA1FBB1F56
:1006D000EE1FFF1FA217B307E407F50720F0A21BC8
:1006E000B30BE40BF50B661F771F881F991F1A9435
:1006F00069F760957095809590959B01AC01BD015F
:10070000CF010895EE0FFF1F881F8BBF0790F69152
:08071000E02D1994F894FFCFCD
:00000001FF
