S012000044616E6B2D547261696E2E7372656369
S113000071C0000079C0000077C0000075C0000016
S113001073C0000071C000006FC000006DC000001C
S11300206BC0000069C0000067C0000065C000002C
S113003063C0000061C000005FC000005DC000003C
S11300405BC0000059C0000057C0000055C000004C
S113005053C0000051C000004FC000004DC000005C
S11300604BC0000049C0000047C0000045C000006C
S113007043C0000041C000003FC000003DC000007C
S11300803BC0000039C0000037C0000035C000008C
S113009033C0000031C000002FC000002DC000009C
S11300A02BC0000029C0000027C0000025C00000AC
S11300B023C0000021C000001FC000001DC00000BC
S11300C01BC0000019C0000017C0000015C00000CC
S11300D013C0000011C000000FC000000DC00000DC
S11300E00BC0000011241FBECFEFD1E2DEBFCDBF95
S11300F000E00CBF2BD071C183CFFC0160837183FE
S1130100660F67BD0895FC0173836283660F771FD2
S113011070938900609388000895CF93DF93EC0176
S11301208FEF84B960E070E0CE01E7DF60E070E05B
S1130130CE01E9DF83E884BD83E085BD91E8909337
S1130140800080938100DF91CF910895CF93DF9356
S1130150CDB7DEB72F970FB6F894DEBF0FBECDBF75
S1130160CE01019627D0CE010296D7DFCE010696A6
S1130170B5D064E0CE0101962BD06AE0CE0106969C
S11301809FD061E0CE0106968CD064E670E0CE018B
S11301900296B3DF64E670E0CE010296B4DF80E03D
S11301A090E02F960FB6F894DEBF0FBECDBFDF915F
S11301B0CF9108958FEF8DB91EB883E88093900096
S11301C083E08093910010929B0010929A0008950E
S11301D08FEF860F8630D0F585B1816085B96330A5
S11301E0D1F028F4613049F0623071F0089565303F
S11301F001F1C0F0663021F1089582E390E090931C
S1130200990080939800089584E690E09093990073
S113021080939800089588EC90E0909399008093DF
S11302209800089580E991E0909399008093980054
S1130230089580E293E09093990080939800089544
S11302408CEF93E090939900809398000895FC01BB
S11302508381218130E0280F311D8481280F311DD5
S11302608581280F311D31952195310931872087EA
S1130270368327830895CF93DF93EC01888184D05C
S11302808B8182D0898180D08C817ED08D817CD0FD
S11302908E817AD08F8178D08A8176D0DF91CF9188
S11302A00895CF93DF93EC018FE08B8381E08C83FF
S11302B06D83CE01CCDFCE01DEDFDF91CF910895D7
S11302C0CF93DF93EC0186E08B831C826D83CE0198
S11302D0BEDFCE01D0DFDF91CF910895FC018EE720
S11302E0808311828FEE828321E048E060E875E22A
S11302F080E090E001C008950F931F93CF93C42F23
S1130300422F8B019C010C52114021093109053DFA
S1130310104C2140310520F4C53010F0C93018F0DC
S113032081E090E05AD028E12093C100442329F0D1
S1130330E1ECF0E0208120682083DC01CB01880F10
S1130340991FAA1FBB1F880F991FAA1FBB1F9C01BF
S1130350AD01220F331F441F551F220F331F441FAB
S1130360551F60E074E284EF90E015D0215031090C
S11303703093C5002093C400C550CC0FC093C20075
S1130380CF911F910F9108959091C00095FFFCCFDC
S11303908093C6000895A1E21A2EAA1BBB1BFD017F
S11303A00DC0AA1FBB1FEE1FFF1FA217B307E40750
S11303B0F50720F0A21BB30BE40BF50B661F771FA8
S11303C0881F991F1A9469F7609570958095909588
S11103D09B01AC01BD01CF010895F894FFCF4D
S9030000FC
