S012000044616E6B2D547261696E2E7372656369
S113000071C0000081C000007FC0000095C00000E6
S1130010C7C0000079C0000077C0000075C00000B0
S113002073C0000071C000006FC000006DC000000C
S11300306BC0000069C0000067C0000065C000001C
S113004063C0000061C000005FC000005DC000002C
S11300505BC0000059C0000057C0000055C000003C
S113006053C0000051C000004FC000004DC000004C
S11300704BC0000049C0000047C0000045C000005C
S113008043C0000041C000003FC000003DC000006C
S11300903BC0000039C0000037C0000035C000007C
S11300A033C0000031C000002FC000002DC000008C
S11300B02BC0000029C0000027C0000025C000009C
S11300C023C0000021C000001FC000001DC00000AC
S11300D01BC0000019C0000017C0000015C00000BC
S11300E013C0000011241FBECFEFD1E2DEBFCDBF8D
S11300F000E00CBF22E0A0E0B2E001C01D92A230FB
S1130100B207E1F7AAD059C17BCFE9E6F0E08081DC
S1130110806F80838DB38C608DBB78940895FC01CF
S113012073836283558344833783268321E030E0DD
S113013031832083EACF08951F920F920FB60F9256
S113014011242F938F939F938DB3877F8DBB8DB392
S11301508B7F8DBB80910002909101020196909358
S11301600102809300022FE986E891E0215080404B
S11301709040E1F700C000008CB384608CBB8CB36A
S113018088608CBB8DB384608DBB8DB388608DBB60
S11301909F918F912F910F900FBE0F901F901895E4
S11301A01F920F920FB60F9211242F938F939F9348
S11301B08DB38B7F8DBB8DB3877F8DBB8091000208
S11301C090910102019690930102809300022FE71F
S11301D088E391E0215080409040E1F700C00000A6
S11301E08CB388608CBB8CB384608CBB8DB388600B
S11301F08DBB8DB384608DBB9F918F912F910F9098
S11302000FBE0F901F901895FC0160837183660FD9
S113021067BD0895FC0173836283660F771F709333
S11302208900609388000895CF93DF93EC018FEFEA
S113023084B960E070E0CE01E7DF60E070E0CE01F9
S1130240E9DF83E884BD83E085BD91E89093800075
S113025080938100DF91CF910895CF93DF93CDB741
S1130260DEB767970FB6F894DEBF0FBECDBFCE01E1
S113027001961DD0CE01029628D0CE010C96D4DF73
S11302809E01245F3F4FAE014E5F5F4FBE016F5F23
S11302907F4FCE01409643DF80E090E067960FB633
S11302A0F894DEBF0FBECDBFDF91CF9108958FEFDD
S11302B08DB91EB883E88093900083E08093910009
S11302C010929B0010929A000895FC018EE780839F
S11302D011828FEE828321E048E060E875E280E0DD
S11302E090E001C008950F931F93CF93C42F422F22
S11302F08B019C010C52114021093109053D104C20
S11303002140310520F4C53010F0C93018F081E0E7
S113031090E053D028E12093C100442329F0E1EC7C
S1130320F0E0208120682083DC01CB01880F991F35
S1130330AA1FBB1F880F991FAA1FBB1F9C01AD01D9
S1130340220F331F441F551F220F331F441F551FF5
S113035060E074E284EF90E00ED0215031093093D4
S1130360C5002093C400C550CC0FC093C200CF91E8
S11303701F910F910895A1E21A2EAA1BBB1BFD0128
S11303800DC0AA1FBB1FEE1FFF1FA217B307E40770
S1130390F50720F0A21BB30BE40BF50B661F771FC8
S11303A0881F991F1A9469F76095709580959095A8
S11103B09B01AC01BD01CF010895F894FFCF6D
S9030000FC
