:1000000078C0000088C0000086C00000A1C10000C8
:10001000D3C1000080C000007EC000007CC0000092
:100020007AC0000078C0000076C0000074C00000F4
:1000300072C0000070C000006EC000006CC0000004
:100040006AC0000068C0000066C0000064C0000014
:1000500062C0000060C000005EC000005CC0000024
:100060005AC0000058C0000056C0000054C0000034
:1000700052C0000050C000004EC000004CC0000044
:100080004AC0000048C0000046C0000044C0000054
:1000900042C0000040C000003EC000003CC0000064
:1000A0003AC0000038C0000036C0000034C0000074
:1000B00032C0000030C000002EC000002CC0000084
:1000C0002AC0000028C0000026C0000024C0000094
:1000D00022C0000020C000001EC000001CC00000A4
:1000E0001AC00000000118013001480160017801C8
:1000F0008F0111241FBECFEFD1E2DEBFCDBF00E0E4
:100100000CBF22E0A0E0B2E001C01D92A230B20715
:10011000E1F7AFD1EFC274CFE9E6F0E08081806F04
:1001200080838DB38C608DBB78940895FC017383BC
:100130006283558344833783268321E030E0318313
:100140002083EACF0895CF93DF93EC0165E08C81A3
:100150009D813BD28FE39CE90197F1F700C000003D
:1001600061E08C819D8122D29FEF23E234EF80E019
:100170009150204030408040D9F700C0000064E634
:1001800070E08E819F814CD164E170E08E819F810F
:100190004DD162E08A819B81A0D163E08A819B81FD
:1001A0009CD19FEF29E638E1915020403040E1F7A3
:1001B00000C0000064E08A819B818FD18FEF99E6B7
:1001C00028E1815090402040E1F700C0000065E048
:1001D0008A819B8182D1DF91CF910895CF93DF9364
:1001E0002091000230910102F9013197E730F105C9
:1001F00008F0ABC0EC018827EE58FF4F8F4F72C25A
:10020000888199812817390709F09FC00196998341
:10021000888367E08C819D81C9D160E070E08E8128
:100220009F81FED060E070E08E819F81FFD08DC005
:10023000888199812817390709F087C00196998329
:10024000888367E08C819D81B1D164E670E08E8106
:100250009F81E6D064E170E08E819F81E7D075C018
:10026000888199812817390709F06FC00196998311
:10027000888367E08C819D8199D160E070E08E81F8
:100280009F81CED060E070E08E819F81CFD05DC035
:10029000888199812817390709F057C001969983F9
:1002A000888367E08C819D8181D164E670E08E81D6
:1002B0009F81B6D064E170E08E819F81B7D045C048
:1002C000888199812817390709F03FC001969983E1
:1002D000888367E08C819D8169D160E070E08E81C8
:1002E0009F819ED060E070E08E819F819FD02DC065
:1002F000888199812817390741F501969983888368
:1003000067E08C819D8152D164E670E08E819F818F
:1003100087D064E170E08E819F8188D016C088818B
:1003200099812817390789F401969983888367E0B2
:100330008C819D813BD160E070E08E819F8170D087
:1003400060E070E08E819F8171D0DF91CF91089540
:100350001F920F920FB60F9211242F938F939F939A
:100360008DB3877F8DBB8DB38B7F8DBB809100025A
:1003700090910102019690930102809300022FEF69
:1003800087EA91E6215080409040E1F700C00000EC
:100390008CB384608CBB8CB388608CBB8DB3846061
:1003A0008DBB8DB388608DBB9F918F912F910F90E6
:1003B0000FBE0F901F9018951F920F920FB60F92BD
:1003C00011242F938F939F938DB3877F8DBB8DB314
:1003D0008B7F8DBB809100029091010201969093DA
:1003E0000102809300022FEF87EA91E621508040BE
:1003F0009040E1F700C000008CB388608CBB8CB3E8
:1004000084608CBB8DB388608DBB8DB384608DBBE5
:100410009F918F912F910F900FBE0F901F90189565
:10042000FC0160837183660F67BD0895FC017383CF
:100430006283660F771F7093890060938800089528
:10044000CF93DF93EC018FEF84B960E070E0CE01D1
:10045000E7DF60E070E0CE01E9DF83E884BD83E0A0
:1004600085BD91E89093800080938100DF91CF91CA
:100470000895CF93DF93CDB7DEB767970FB6F894A3
:10048000DEBF0FBECDBFCE01019619D0CE010296C0
:10049000AAD0CE010C96D4DF9E01245F3F4FAE015F
:1004A0004E5F5F4FBE016F5F7F4FCE0140963EDED5
:1004B000CE01409648DECE01409690DEFCCF8FEF15
:1004C0008DB91EB883E88093900083E080939100FB
:1004D00010929B0010929A0008958FEF860F86303D
:1004E000D0F585B1816085B96330D1F028F46130F1
:1004F00049F0623071F00895653001F1C0F0663066
:1005000021F1089582E390E0909399008093980000
:10051000089584E690E09093990080939800089560
:1005200088EC90E09093990080939800089580E97A
:1005300091E09093990080939800089580E293E071
:10054000909399008093980008958CEF93E0909396
:100550009900809398000895FC018381218130E007
:10056000280F311D8481280F311D8581280F311DF1
:100570003195219531093187208736832783089566
:10058000CF93DF93EC01888184D08B8182D08981E5
:1005900080D08C817ED08D817CD08E817AD08F81ED
:1005A00078D08A8176D0DF91CF910895CF93DF9371
:1005B000EC018FE08B8381E08C836D83CE01CCDFF7
:1005C000CE01DEDFDF91CF910895CF93DF93EC0171
:1005D00086E08B831C826D83CE01BEDFCE01D0DF2F
:1005E000DF91CF910895FC018EE7808311828FEE19
:1005F000828321E048E060E875E280E090E001C09D
:1006000008950F931F93CF93C42F422F8B019C010A
:100610000C52114021093109053D104C2140310592
:1006200020F4C53010F0C93018F081E090E062D0BD
:1006300028E12093C100442329F0E1ECF0E020817F
:1006400020682083DC01CB01880F991FAA1FBB1FE4
:10065000880F991FAA1FBB1F9C01AD01220F331FDA
:10066000441F551F220F331F441F551F60E074E2C3
:1006700084EF90E015D0215031093093C5002093CC
:10068000C400C550CC0FC093C200CF911F910F91F1
:1006900008959091C00095FFFCCF8093C600089507
:1006A000A1E21A2EAA1BBB1BFD010DC0AA1FBB1F76
:1006B000EE1FFF1FA217B307E407F50720F0A21BE8
:1006C000B30BE40BF50B661F771F881F991F1A9455
:1006D00069F760957095809590959B01AC01BD017F
:1006E000CF010895EE0FFF1F881F8BBF0790F69173
:0806F000E02D1994F894FFCFEE
:00000001FF
