S012000044616E6B2D547261696E2E7372656369
S113000072C000009EC000009CC00000FDC0000043
S113001070C1000096C0000094C0000092C00000AF
S113002090C000008EC000008CC000008AC0000098
S113003088C0000086C0000084C0000082C00000A8
S113004080C000007EC000007CC000007AC00000B8
S113005078C0000076C0000074C0000072C00000C8
S113006070C000006EC000006CC000006AC00000D8
S113007068C0000066C0000064C0000062C00000E8
S113008060C000005EC000005CC000005AC00000F8
S113009058C0000056C0000054C0000052C0000008
S11300A050C000004EC000004CC000004AC0000018
S11300B048C0000046C0000044C0000042C0000028
S11300C040C000003EC000003CC000003AC0000038
S11300D038C0000036C0000034C0000032C0000048
S11300E030C00000830111241FBECFEFD1E2DEBF78
S11300F0CDBF00E00CBF12E0A0E0B2E0E2EFF5E01B
S113010000E00BBF02C007900D92A230B107D9F7EF
S113011022E0A2E0B2E001C01D92A131B207E1F7F2
S113012010E0C3E7D0E000E005C021970109802F6B
S1130130FE0155D2C237D10780E00807B1F73AD0A3
S113014056C25ECFFC0160837183660F67BD08955C
S1130150FC0173836283660F771F70938900609339
S113016088000895CF93DF93EC018FEF84B960E0AA
S113017070E0CE01E7DF60E070E0CE01E9DF83E804
S113018084BD83E085BD91E89093800080938100D5
S1130190DF91CF910895019761F46F3F7F4F49F448
S11301A080E192E0B6D08CE092E0DCDF82E092E085
S11301B097C1089565E082E092E084D160910002E5
S11301C082E092E070D165E080E192E0B0D064E634
S11301D070E08CE092E0B6DF69E170E08CE092E0E0
S11301E0B7DF80910002909101020897D4F360E098
S11301F070E08CE092E0ACDF60E070E08CE092E0D4
S1130200A1DF80E090E008951F920F920FB60F9245
S113021011240BB60F922F933F934F935F936F93D9
S11302207F938F939F93AF93BF93EF93FF938091AB
S113023000029091010201969093010280930002C2
S1130240863091050CF442C0059789F464E670E0A9
S11302508CE092E07DDF80E192E0E7D069E170E03C
S11302608CE092E075DF65E080E192E09FD08091C0
S1130270000290910102069789F464E670E08CE034
S113028092E066DF80E192E0D0D069E170E08CE03A
S113029092E05EDF65E080E192E049D08091000267
S11302A090910102079769F464E670E08CE092E0B3
S11302B04FDF80E192E0B9D069E170E08CE092E038
S11302C047DF6091000282E092E0EDD0FF91EF9170
S11302D0BF91AF919F918F917F916F915F914F915A
S11302E03F912F910F900BBE0F900FBE0F901F9058
S11302F018951F920F920FB60F9211240F900FBEF4
S11303000F901F9018956FEF7FEF81E090E043CF3F
S113031008958FEF8DB91EB883E88093900083E031
S11303208093910010929B0010929A0008958FEF91
S1130330860F8630D0F585B1816085B96330D1F000
S113034028F4613049F0623071F00895653001F1AC
S1130350C0F0663021F1089582E390E09093990013
S113036080939800089584E690E090939900809398
S11303709800089588EC90E09093990080939800F9
S1130380089580E991E090939900809398000895EE
S113039080E293E0909399008093980008958CEF05
S11303A093E0909399008093980008958FEF860FBF
S11303B08630D0F585B1867C85B96330D1F028F4D8
S11303C0613049F0623071F00895653001F1C0F098
S11303D0663021F1089582E390E090939900809330
S11303E09800089584E690E0909399008093980093
S11303F0089588EC90E09093990080939800089574
S113040080E991E09093990080939800089580E2A8
S113041093E0909399008093980008958CEF93E073
S113042090939900809398000895809198009091FA
S11304309900C39748F0E8E9F0E0808191819695AE
S1130440879591838083F1CF109299001092980040
S11304500895FC018381218130E0280F311D8481BE
S1130460280F311D8581280F311D319521953109C2
S113047031872087368327830895CF93DF93EC0158
S1130480888184D08B8182D0898180D08C817ED0F8
S11304908D817CD08E817AD08F8178D08A8176D0FC
S11304A0DF91CF910895CF93DF93EC018FE08B839D
S11304B081E08C836D83CE01CCDFCE01DEDFDF9162
S11304C0CF910895CF93DF93EC0186E08B831C8258
S11304D06D83CE01BEDFCE01D0DFDF91CF910895D1
S11304E0FC018EE7808311828FEE828321E048E055
S11304F060E875E280E090E001C008950F931F93D7
S1130500CF93C42F422F8B019C010C52114021091F
S11305103109053D104C2140310520F4C53010F05F
S1130520C93018F081E090E062D028E12093C10046
S1130530442329F0E1ECF0E0208120682083DC01F1
S1130540CB01880F991FAA1FBB1F880F991FAA1FD1
S1130550BB1F9C01AD01220F331F441F551F220FE7
S1130560331F441F551F60E074E284EF90E015D000
S1130570215031093093C5002093C400C550CC0FDD
S1130580C093C200CF911F910F9108959091C00024
S113059095FFFCCF8093C6000895A1E21A2EAA1BF2
S11305A0BB1BFD010DC0AA1FBB1FEE1FFF1FA2171F
S11305B0B307E407F50720F0A21BB30BE40BF50B1C
S11305C0661F771F881F991F1A9469F760957095A5
S11305D0809590959B01AC01BD01CF010895EE0F6C
S11305E0FF1F881F8BBF0790F691E02D1994F89494
S10505F0FFCF37
S10505F2010002
S9030000FC
